{
  "_format": "hh-sol-artifact-1",
  "contractName": "ArcNFT",
  "sourceName": "contracts/ArcNFT.sol",
  "abi": [
    {
      "inputs": [
        {
          "internalType": "address",
          "name": "initialOwner",
          "type": "address"
        }
      ],
      "stateMutability": "nonpayable",
      "type": "constructor"
    },
    {
      "inputs": [
        {
          "internalType": "address",
          "name": "sender",
          "type": "address"
        },
        {
          "internalType": "uint256",
          "name": "tokenId",
          "type": "uint256"
        },
        {
          "internalType": "address",
          "name": "owner",
          "type": "address"
        }
      ],
      "name": "ERC721IncorrectOwner",
      "type": "error"
    },
    {
      "inputs": [
        {
          "internalType": "address",
          "name": "operator",
          "type": "address"
        },
        {
          "internalType": "uint256",
          "name": "tokenId",
          "type": "uint256"
        }
      ],
      "name": "ERC721InsufficientApproval",
      "type": "error"
    },
    {
      "inputs": [
        {
          "internalType": "address",
          "name": "approver",
          "type": "address"
        }
      ],
      "name": "ERC721InvalidApprover",
      "type": "error"
    },
    {
      "inputs": [
        {
          "internalType": "address",
          "name": "operator",
          "type": "address"
        }
      ],
      "name": "ERC721InvalidOperator",
      "type": "error"
    },
    {
      "inputs": [
        {
          "internalType": "address",
          "name": "owner",
          "type": "address"
        }
      ],
      "name": "ERC721InvalidOwner",
      "type": "error"
    },
    {
      "inputs": [
        {
          "internalType": "address",
          "name": "receiver",
          "type": "address"
        }
      ],
      "name": "ERC721InvalidReceiver",
      "type": "error"
    },
    {
      "inputs": [
        {
          "internalType": "address",
          "name": "sender",
          "type": "address"
        }
      ],
      "name": "ERC721InvalidSender",
      "type": "error"
    },
    {
      "inputs": [
        {
          "internalType": "uint256",
          "name": "tokenId",
          "type": "uint256"
        }
      ],
      "name": "ERC721NonexistentToken",
      "type": "error"
    },
    {
      "inputs": [
        {
          "internalType": "address",
          "name": "owner",
          "type": "address"
        }
      ],
      "name": "OwnableInvalidOwner",
      "type": "error"
    },
    {
      "inputs": [
        {
          "internalType": "address",
          "name": "account",
          "type": "address"
        }
      ],
      "name": "OwnableUnauthorizedAccount",
      "type": "error"
    },
    {
      "anonymous": false,
      "inputs": [
        {
          "indexed": true,
          "internalType": "address",
          "name": "owner",
          "type": "address"
        },
        {
          "indexed": true,
          "internalType": "address",
          "name": "approved",
          "type": "address"
        },
        {
          "indexed": true,
          "internalType": "uint256",
          "name": "tokenId",
          "type": "uint256"
        }
      ],
      "name": "Approval",
      "type": "event"
    },
    {
      "anonymous": false,
      "inputs": [
        {
          "indexed": true,
          "internalType": "address",
          "name": "owner",
          "type": "address"
        },
        {
          "indexed": true,
          "internalType": "address",
          "name": "operator",
          "type": "address"
        },
        {
          "indexed": false,
          "internalType": "bool",
          "name": "approved",
          "type": "bool"
        }
      ],
      "name": "ApprovalForAll",
      "type": "event"
    },
    {
      "anonymous": false,
      "inputs": [
        {
          "indexed": true,
          "internalType": "address",
          "name": "to",
          "type": "address"
        },
        {
          "indexed": true,
          "internalType": "uint256",
          "name": "tokenId",
          "type": "uint256"
        },
        {
          "indexed": false,
          "internalType": "uint8",
          "name": "nftType",
          "type": "uint8"
        }
      ],
      "name": "NFTMinted",
      "type": "event"
    },
    {
      "anonymous": false,
      "inputs": [
        {
          "indexed": true,
          "internalType": "address",
          "name": "previousOwner",
          "type": "address"
        },
        {
          "indexed": true,
          "internalType": "address",
          "name": "newOwner",
          "type": "address"
        }
      ],
      "name": "OwnershipTransferred",
      "type": "event"
    },
    {
      "anonymous": false,
      "inputs": [
        {
          "indexed": true,
          "internalType": "address",
          "name": "from",
          "type": "address"
        },
        {
          "indexed": true,
          "internalType": "address",
          "name": "to",
          "type": "address"
        },
        {
          "indexed": true,
          "internalType": "uint256",
          "name": "tokenId",
          "type": "uint256"
        }
      ],
      "name": "Transfer",
      "type": "event"
    },
    {
      "inputs": [
        {
          "internalType": "address",
          "name": "to",
          "type": "address"
        },
        {
          "internalType": "uint256",
          "name": "tokenId",
          "type": "uint256"
        }
      ],
      "name": "approve",
      "outputs": [],
      "stateMutability": "nonpayable",
      "type": "function"
    },
    {
      "inputs": [
        {
          "internalType": "address",
          "name": "owner",
          "type": "address"
        }
      ],
      "name": "balanceOf",
      "outputs": [
        {
          "internalType": "uint256",
          "name": "",
          "type": "uint256"
        }
      ],
      "stateMutability": "view",
      "type": "function"
    },
    {
      "inputs": [],
      "name": "baseURI",
      "outputs": [
        {
          "internalType": "string",
          "name": "",
          "type": "string"
        }
      ],
      "stateMutability": "view",
      "type": "function"
    },
    {
      "inputs": [
        {
          "internalType": "uint256",
          "name": "tokenId",
          "type": "uint256"
        }
      ],
      "name": "getApproved",
      "outputs": [
        {
          "internalType": "address",
          "name": "",
          "type": "address"
        }
      ],
      "stateMutability": "view",
      "type": "function"
    },
    {
      "inputs": [
        {
          "internalType": "uint256",
          "name": "tokenId",
          "type": "uint256"
        }
      ],
      "name": "getNFTType",
      "outputs": [
        {
          "internalType": "uint8",
          "name": "",
          "type": "uint8"
        }
      ],
      "stateMutability": "view",
      "type": "function"
    },
    {
      "inputs": [
        {
          "internalType": "address",
          "name": "owner",
          "type": "address"
        },
        {
          "internalType": "address",
          "name": "operator",
          "type": "address"
        }
      ],
      "name": "isApprovedForAll",
      "outputs": [
        {
          "internalType": "bool",
          "name": "",
          "type": "bool"
        }
      ],
      "stateMutability": "view",
      "type": "function"
    },
    {
      "inputs": [
        {
          "internalType": "uint8",
          "name": "_type",
          "type": "uint8"
        }
      ],
      "name": "mint",
      "outputs": [
        {
          "internalType": "uint256",
          "name": "",
          "type": "uint256"
        }
      ],
      "stateMutability": "nonpayable",
      "type": "function"
    },
    {
      "inputs": [],
      "name": "name",
      "outputs": [
        {
          "internalType": "string",
          "name": "",
          "type": "string"
        }
      ],
      "stateMutability": "view",
      "type": "function"
    },
    {
      "inputs": [
        {
          "internalType": "uint256",
          "name": "",
          "type": "uint256"
        }
      ],
      "name": "nftType",
      "outputs": [
        {
          "internalType": "uint8",
          "name": "",
          "type": "uint8"
        }
      ],
      "stateMutability": "view",
      "type": "function"
    },
    {
      "inputs": [],
      "name": "owner",
      "outputs": [
        {
          "internalType": "address",
          "name": "",
          "type": "address"
        }
      ],
      "stateMutability": "view",
      "type": "function"
    },
    {
      "inputs": [
        {
          "internalType": "uint256",
          "name": "tokenId",
          "type": "uint256"
        }
      ],
      "name": "ownerOf",
      "outputs": [
        {
          "internalType": "address",
          "name": "",
          "type": "address"
        }
      ],
      "stateMutability": "view",
      "type": "function"
    },
    {
      "inputs": [],
      "name": "renounceOwnership",
      "outputs": [],
      "stateMutability": "nonpayable",
      "type": "function"
    },
    {
      "inputs": [
        {
          "internalType": "address",
          "name": "from",
          "type": "address"
        },
        {
          "internalType": "address",
          "name": "to",
          "type": "address"
        },
        {
          "internalType": "uint256",
          "name": "tokenId",
          "type": "uint256"
        }
      ],
      "name": "safeTransferFrom",
      "outputs": [],
      "stateMutability": "nonpayable",
      "type": "function"
    },
    {
      "inputs": [
        {
          "internalType": "address",
          "name": "from",
          "type": "address"
        },
        {
          "internalType": "address",
          "name": "to",
          "type": "address"
        },
        {
          "internalType": "uint256",
          "name": "tokenId",
          "type": "uint256"
        },
        {
          "internalType": "bytes",
          "name": "data",
          "type": "bytes"
        }
      ],
      "name": "safeTransferFrom",
      "outputs": [],
      "stateMutability": "nonpayable",
      "type": "function"
    },
    {
      "inputs": [
        {
          "internalType": "address",
          "name": "operator",
          "type": "address"
        },
        {
          "internalType": "bool",
          "name": "approved",
          "type": "bool"
        }
      ],
      "name": "setApprovalForAll",
      "outputs": [],
      "stateMutability": "nonpayable",
      "type": "function"
    },
    {
      "inputs": [
        {
          "internalType": "string",
          "name": "baseURI_",
          "type": "string"
        }
      ],
      "name": "setBaseURI",
      "outputs": [],
      "stateMutability": "nonpayable",
      "type": "function"
    },
    {
      "inputs": [
        {
          "internalType": "bytes4",
          "name": "interfaceId",
          "type": "bytes4"
        }
      ],
      "name": "supportsInterface",
      "outputs": [
        {
          "internalType": "bool",
          "name": "",
          "type": "bool"
        }
      ],
      "stateMutability": "view",
      "type": "function"
    },
    {
      "inputs": [],
      "name": "symbol",
      "outputs": [
        {
          "internalType": "string",
          "name": "",
          "type": "string"
        }
      ],
      "stateMutability": "view",
      "type": "function"
    },
    {
      "inputs": [
        {
          "internalType": "uint256",
          "name": "tokenId",
          "type": "uint256"
        }
      ],
      "name": "tokenURI",
      "outputs": [
        {
          "internalType": "string",
          "name": "",
          "type": "string"
        }
      ],
      "stateMutability": "view",
      "type": "function"
    },
    {
      "inputs": [],
      "name": "totalSupply",
      "outputs": [
        {
          "internalType": "uint256",
          "name": "",
          "type": "uint256"
        }
      ],
      "stateMutability": "view",
      "type": "function"
    },
    {
      "inputs": [
        {
          "internalType": "address",
          "name": "from",
          "type": "address"
        },
        {
          "internalType": "address",
          "name": "to",
          "type": "address"
        },
        {
          "internalType": "uint256",
          "name": "tokenId",
          "type": "uint256"
        }
      ],
      "name": "transferFrom",
      "outputs": [],
      "stateMutability": "nonpayable",
      "type": "function"
    },
    {
      "inputs": [
        {
          "internalType": "address",
          "name": "newOwner",
          "type": "address"
        }
      ],
      "name": "transferOwnership",
      "outputs": [],
      "stateMutability": "nonpayable",
      "type": "function"
    }
  ],
  "bytecode": "0x60806040523480156200001157600080fd5b50604051620018ab380380620018ab83398101604081905262000034916200013a565b806040518060400160405280600f81526020016e105c98c813995d1ddbdc9ac8139195608a1b8152506040518060400160405280600381526020016241524360e81b81525081600090816200008a919062000211565b50600162000099828262000211565b5050506001600160a01b038116620000cb57604051631e4fbdf760e01b81526000600482015260240160405180910390fd5b620000d681620000e8565b505060006008819055600a55620002dd565b600680546001600160a01b038381166001600160a01b0319831681179093556040519116919082907f8be0079c531659141344cd1fd0a4f28419497f9722a3daafe3b4186f6b6457e090600090a35050565b6000602082840312156200014d57600080fd5b81516001600160a01b03811681146200016557600080fd5b9392505050565b634e487b7160e01b600052604160045260246000fd5b600181811c908216806200019757607f821691505b602082108103620001b857634e487b7160e01b600052602260045260246000fd5b50919050565b601f8211156200020c57600081815260208120601f850160051c81016020861015620001e75750805b601f850160051c820191505b818110156200020857828155600101620001f3565b5050505b505050565b81516001600160401b038111156200022d576200022d6200016c565b62000245816200023e845462000182565b84620001be565b602080601f8311600181146200027d5760008415620002645750858301515b600019600386901b1c1916600185901b17855562000208565b600085815260208120601f198616915b82811015620002ae578886015182559484019460019091019084016200028d565b5085821015620002cd5787850151600019600388901b60f8161c191681555b5050505050600190811b01905550565b6115be80620002ed6000396000f3fe608060405234801561001057600080fd5b50600436106101425760003560e01c80636ecd2306116100b8578063a22cb4651161007c578063a22cb4651461029b578063af174784146102ae578063b88d4fde146102d1578063c87b56dd146102e4578063e985e9c5146102f7578063f2fde38b1461030a57600080fd5b80636ecd23061461025457806370a0823114610267578063715018a61461027a5780638da5cb5b1461028257806395d89b411461029357600080fd5b806323b872dd1161010a57806323b872dd146101db57806342842e0e146101ee57806355f804b3146102015780635cb960e3146102145780636352211e146102395780636c0360eb1461024c57600080fd5b806301ffc9a71461014757806306fdde031461016f578063081812fc14610184578063095ea7b3146101af57806318160ddd146101c4575b600080fd5b61015a610155366004611068565b61031d565b60405190151581526020015b60405180910390f35b61017761036f565b60405161016691906110dc565b6101976101923660046110ef565b610401565b6040516001600160a01b039091168152602001610166565b6101c26101bd366004611124565b61042a565b005b6101cd600a5481565b604051908152602001610166565b6101c26101e936600461114e565b610439565b6101c26101fc36600461114e565b6104c9565b6101c261020f366004611216565b6104e9565b6102276102223660046110ef565b6104fd565b60405160ff9091168152602001610166565b6101976102473660046110ef565b610577565b610177610582565b6101cd61026236600461125f565b610591565b6101cd610275366004611282565b61068e565b6101c26106d6565b6006546001600160a01b0316610197565b6101776106ea565b6101c26102a936600461129d565b6106f9565b6102276102bc3660046110ef565b60096020526000908152604090205460ff1681565b6101c26102df3660046112d9565b610704565b6101776102f23660046110ef565b61071c565b61015a610305366004611355565b61088c565b6101c2610318366004611282565b6108ba565b60006001600160e01b031982166380ac58cd60e01b148061034e57506001600160e01b03198216635b5e139f60e01b145b8061036957506301ffc9a760e01b6001600160e01b03198316145b92915050565b60606000805461037e90611388565b80601f01602080910402602001604051908101604052809291908181526020018280546103aa90611388565b80156103f75780601f106103cc576101008083540402835291602001916103f7565b820191906000526020600020905b8154815290600101906020018083116103da57829003601f168201915b5050505050905090565b600061040c826108f8565b506000828152600460205260409020546001600160a01b0316610369565b610435828233610931565b5050565b6001600160a01b03821661046857604051633250574960e11b8152600060048201526024015b60405180910390fd5b600061047583833361093e565b9050836001600160a01b0316816001600160a01b0316146104c3576040516364283d7b60e01b81526001600160a01b038086166004830152602482018490528216604482015260640161045f565b50505050565b6104e483838360405180602001604052806000815250610704565b505050565b6104f1610a37565b60076104358282611408565b6000818152600260205260408120546001600160a01b03166105615760405162461bcd60e51b815260206004820152601c60248201527f4172634e46543a20546f6b656e20646f6573206e6f7420657869737400000000604482015260640161045f565b5060009081526009602052604090205460ff1690565b6000610369826108f8565b60606007805461037e90611388565b600060028260ff1611156105fd5760405162461bcd60e51b815260206004820152602d60248201527f4172634e46543a20496e76616c6964204e4654207479706520286d757374206260448201526c6520302c20312c206f7220322960981b606482015260840161045f565b60088054908190600061060f836114c8565b9091555050600a8054906000610624836114c8565b90915550506000818152600960205260409020805460ff191660ff851617905561064e3382610a64565b60405160ff84168152819033907f5716925f2a990bb51e5354134a606547c86dc787be1a2729eef575fd0c2bea1e9060200160405180910390a392915050565b60006001600160a01b0382166106ba576040516322718ad960e21b81526000600482015260240161045f565b506001600160a01b031660009081526003602052604090205490565b6106de610a37565b6106e86000610a7e565b565b60606001805461037e90611388565b610435338383610ad0565b61070f848484610439565b6104c33385858585610b6f565b6000818152600260205260409020546060906001600160a01b03166107935760405162461bcd60e51b815260206004820152602760248201527f4172634e46543a2055524920717565727920666f72206e6f6e6578697374656e6044820152663a103a37b5b2b760c91b606482015260840161045f565b6000828152600960205260408120546007805460ff90921692916107b690611388565b80601f01602080910402602001604051908101604052809291908181526020018280546107e290611388565b801561082f5780601f106108045761010080835404028352916020019161082f565b820191906000526020600020905b81548152906001019060200180831161081257829003601f168201915b50505050509050805160000361085657505060408051602081019091526000815292915050565b806108638360ff16610c9a565b6040516020016108749291906114ef565b60405160208183030381529060405292505050919050565b6001600160a01b03918216600090815260056020908152604080832093909416825291909152205460ff1690565b6108c2610a37565b6001600160a01b0381166108ec57604051631e4fbdf760e01b81526000600482015260240161045f565b6108f581610a7e565b50565b6000818152600260205260408120546001600160a01b03168061036957604051637e27328960e01b81526004810184905260240161045f565b6104e48383836001610d2d565b6000828152600260205260408120546001600160a01b039081169083161561096b5761096b818486610e33565b6001600160a01b038116156109a957610988600085600080610d2d565b6001600160a01b038116600090815260036020526040902080546000190190555b6001600160a01b038516156109d8576001600160a01b0385166000908152600360205260409020805460010190555b60008481526002602052604080822080546001600160a01b0319166001600160a01b0389811691821790925591518793918516917fddf252ad1be2c89b69c2b068fc378daa952ba7f163c4a11628f55a4df523b3ef91a4949350505050565b6006546001600160a01b031633146106e85760405163118cdaa760e01b815233600482015260240161045f565b610435828260405180602001604052806000815250610e97565b600680546001600160a01b038381166001600160a01b0319831681179093556040519116919082907f8be0079c531659141344cd1fd0a4f28419497f9722a3daafe3b4186f6b6457e090600090a35050565b6001600160a01b038216610b0257604051630b61174360e31b81526001600160a01b038316600482015260240161045f565b6001600160a01b03838116600081815260056020908152604080832094871680845294825291829020805460ff191686151590811790915591519182527f17307eab39ab6107e8899845ad3d59bd9653f200f220920489ca2b5937696c31910160405180910390a3505050565b6001600160a01b0383163b15610c9357604051630a85bd0160e11b81526001600160a01b0384169063150b7a0290610bb190889088908790879060040161152e565b6020604051808303816000875af1925050508015610bec575060408051601f3d908101601f19168201909252610be99181019061156b565b60015b610c55573d808015610c1a576040519150601f19603f3d011682016040523d82523d6000602084013e610c1f565b606091505b508051600003610c4d57604051633250574960e11b81526001600160a01b038516600482015260240161045f565b805160208201fd5b6001600160e01b03198116630a85bd0160e11b14610c9157604051633250574960e11b81526001600160a01b038516600482015260240161045f565b505b5050505050565b60606000610ca783610eaf565b600101905060008167ffffffffffffffff811115610cc757610cc761118a565b6040519080825280601f01601f191660200182016040528015610cf1576020820181803683370190505b5090508181016020015b600019016f181899199a1a9b1b9c1cb0b131b232b360811b600a86061a8153600a8504945084610cfb57509392505050565b8080610d4157506001600160a01b03821615155b15610e03576000610d51846108f8565b90506001600160a01b03831615801590610d7d5750826001600160a01b0316816001600160a01b031614155b8015610d905750610d8e818461088c565b155b15610db95760405163a9fbf51f60e01b81526001600160a01b038416600482015260240161045f565b8115610e015783856001600160a01b0316826001600160a01b03167f8c5be1e5ebec7d5bd14f71427d1e84f3dd0314c0f7b2291e5b200ac8c7c3b92560405160405180910390a45b505b5050600090815260046020526040902080546001600160a01b0319166001600160a01b0392909216919091179055565b610e3e838383610f87565b6104e4576001600160a01b038316610e6c57604051637e27328960e01b81526004810182905260240161045f565b60405163177e802f60e01b81526001600160a01b03831660048201526024810182905260440161045f565b610ea18383610fed565b6104e4336000858585610b6f565b60008072184f03e93ff9f4daa797ed6e38ed64bf6a1f0160401b8310610eee5772184f03e93ff9f4daa797ed6e38ed64bf6a1f0160401b830492506040015b6d04ee2d6d415b85acef81000000008310610f1a576d04ee2d6d415b85acef8100000000830492506020015b662386f26fc100008310610f3857662386f26fc10000830492506010015b6305f5e1008310610f50576305f5e100830492506008015b6127108310610f6457612710830492506004015b60648310610f76576064830492506002015b600a83106103695760010192915050565b60006001600160a01b03831615801590610fe55750826001600160a01b0316846001600160a01b03161480610fc15750610fc1848461088c565b80610fe557506000828152600460205260409020546001600160a01b038481169116145b949350505050565b6001600160a01b03821661101757604051633250574960e11b81526000600482015260240161045f565b60006110258383600061093e565b90506001600160a01b038116156104e4576040516339e3563760e11b81526000600482015260240161045f565b6001600160e01b0319811681146108f557600080fd5b60006020828403121561107a57600080fd5b813561108581611052565b9392505050565b60005b838110156110a757818101518382015260200161108f565b50506000910152565b600081518084526110c881602086016020860161108c565b601f01601f19169290920160200192915050565b60208152600061108560208301846110b0565b60006020828403121561110157600080fd5b5035919050565b80356001600160a01b038116811461111f57600080fd5b919050565b6000806040838503121561113757600080fd5b61114083611108565b946020939093013593505050565b60008060006060848603121561116357600080fd5b61116c84611108565b925061117a60208501611108565b9150604084013590509250925092565b634e487b7160e01b600052604160045260246000fd5b600067ffffffffffffffff808411156111bb576111bb61118a565b604051601f8501601f19908116603f011681019082821181831017156111e3576111e361118a565b816040528093508581528686860111156111fc57600080fd5b858560208301376000602087830101525050509392505050565b60006020828403121561122857600080fd5b813567ffffffffffffffff81111561123f57600080fd5b8201601f8101841361125057600080fd5b610fe5848235602084016111a0565b60006020828403121561127157600080fd5b813560ff8116811461108557600080fd5b60006020828403121561129457600080fd5b61108582611108565b600080604083850312156112b057600080fd5b6112b983611108565b9150602083013580151581146112ce57600080fd5b809150509250929050565b600080600080608085870312156112ef57600080fd5b6112f885611108565b935061130660208601611108565b925060408501359150606085013567ffffffffffffffff81111561132957600080fd5b8501601f8101871361133a57600080fd5b611349878235602084016111a0565b91505092959194509250565b6000806040838503121561136857600080fd5b61137183611108565b915061137f60208401611108565b90509250929050565b600181811c9082168061139c57607f821691505b6020821081036113bc57634e487b7160e01b600052602260045260246000fd5b50919050565b601f8211156104e457600081815260208120601f850160051c810160208610156113e95750805b601f850160051c820191505b81811015610c91578281556001016113f5565b815167ffffffffffffffff8111156114225761142261118a565b611436816114308454611388565b846113c2565b602080601f83116001811461146b57600084156114535750858301515b600019600386901b1c1916600185901b178555610c91565b600085815260208120601f198616915b8281101561149a5788860151825594840194600190910190840161147b565b50858210156114b85787850151600019600388901b60f8161c191681555b5050505050600190811b01905550565b6000600182016114e857634e487b7160e01b600052601160045260246000fd5b5060010190565b6000835161150181846020880161108c565b83519083019061151581836020880161108c565b64173539b7b760d91b9101908152600501949350505050565b6001600160a01b0385811682528416602082015260408101839052608060608201819052600090611561908301846110b0565b9695505050505050565b60006020828403121561157d57600080fd5b81516110858161105256fea264697066735822122045570d25c3550dd7973c95cf17c67b1ede98e70fef0e8419db79234e8803d7e864736f6c63430008140033",
  "linkReferences": {},
  "deployedLinkReferences": {}
}